:020000041A00E0
:1000000000800010FD10001A7B01001A7D01001A0B
:100010007F01001A8101001A8301001A8867FF53CB
:100020000000000000000000000000008501001A30
:100030008701001A000000008901001A6514001AE7
:100040007901001A7901001A7901001A00000000F4
:100050007901001A7901001A7901001A7901001A50
:10006000F515001A7901001A7901001A7901001AB0
:100070007901001A7901001A7901001A7901001A30
:100080007901001A7901001A7901001A7901001A20
:100090007901001A7901001A7901001A7901001A10
:1000A0007901001A7901001A7901001A7901001A00
:1000B0007901001A7901001A7901001A7901001AF0
:1000C0007901001A7901001A7901001A7901001AE0
:1000D0007901001A7901001A7901001A7901001AD0
:1000E0007901001A7901001A7901001A7901001AC0
:1000F000000000007901001A7901001A7901001A44
:10010000000000007901001A7901001A7901001A33
:100110007901001AC026001A0000001048000000F3
:10012000C026001A0000081000000000C026001AB7
:100130000000002000000000C026001A00800020FF
:1001400000000000C026001A00C0002000000000CF
:10015000480000102C0400000000081000000000FF
:1001600000000020000000000080002000000000CF
:1001700000C0002000000000FEE7FEE7FEE7FEE70B
:10018000FEE7FEE7FEE7FEE7FEE7FEE70023934219
:100190000AD210B450F8044B41F8044B0433934294
:1001A000F8D35DF8044B7047704700238B4204D2AC
:1001B000002240F8042B0433F8E77047FFFFFFFFED
:1001C000FFFFFFFFFFFFFFFFFFFFFFFFFFFFFFFF3F
:1001D000FFFFFFFFFFFFFFFFFFFFFFFFFFFFFFFF2F
:1001E000FFFFFFFFFFFFFFFFFFFFFFFFFFFFFFFF1F
:1001F000FFFFFFFFFFFFFFFFFFFFFFFFFFFFFFFF0F
:10020000FFFFFFFFFFFFFFFFFFFFFFFFFFFFFFFFFE
:10021000FFFFFFFFFFFFFFFFFFFFFFFFFFFFFFFFEE
:10022000FFFFFFFFFFFFFFFFFFFFFFFFFFFFFFFFDE
:10023000FFFFFFFFFFFFFFFFFFFFFFFFFFFFFFFFCE
:10024000FFFFFFFFFFFFFFFFFFFFFFFFFFFFFFFFBE
:10025000FFFFFFFFFFFFFFFFFFFFFFFFFFFFFFFFAE
:10026000FFFFFFFFFFFFFFFFFFFFFFFFFFFFFFFF9E
:10027000FFFFFFFFFFFFFFFFFFFFFFFFFFFFFFFF8E
:10028000FFFFFFFFFFFFFFFFFFFFFFFFFFFFFFFF7E
:10029000FFFFFFFFFFFFFFFFFFFFFFFFFFFFFFFF6E
:1002A000FFFFFFFFFFFFFFFFFFFFFFFFFFFFFFFF5E
:1002B000FFFFFFFFFFFFFFFFFFFFFFFFFFFFFFFF4E
:1002C000FFFFFFFFFFFFFFFFFFFFFFFFFFFFFFFF3E
:1002D000FFFFFFFFFFFFFFFFFFFFFFFFFFFFFFFF2E
:1002E000FFFFFFFFFFFFFFFFFFFFFFFFFFFFFFFF1E
:1002F000FFFFFFFFFFFFFFFFFFFFFFFFFFFFFFFF0E
:1003000000231C2B12D810B4094A02EB830112F807
:1003100023404A78488802EB4412064941F82200FB
:1003200001331C2BF0D95DF8044B7047704700BFB8
:100330007C1B001A0060084010B5174AD2F8203123
:1003400023F4704343F41043C2F82031D2F824312F
:1003500023F4704343F41043C2F8243101220F49BF
:10036000062000F0E7FD00244CB10B4B5A6822F048
:100370000C025A605A6842F003025A6010BD0848E5
:1003800000EB840101238A78497810F8240000F0FA
:100390000BFB0134E8E700BF0030044000CB280C21
:1003A000781B001A08B5FFF7ABFFFFF7C5FF08BDC4
:1003B0000022052A19D870B40C4911F8125001EB2B
:1003C00042014C780A4B05F5006653F826100120CF
:1003D000A040014343F8261003EB451300211955B3
:1003E0000132052AE8D970BC70477047FC1B001A1F
:1003F00000400F400023032B16D830B40B4911F8EE
:10040000132001EB43014D78094C02F5006254F8CA
:1004100022100120A84021EA000144F822100133F3
:10042000032BEBD930BC7047704700BFF41B001A98
:1004300000400F400023082B16D830B40B4911F8A8
:10044000132001EB43014D78094C02F5006254F88A
:1004500022100120A84021EA000144F822100133B3
:10046000082BEBD930BC7047704700BF081C001A3E
:1004700000400F4010B582B0084C6946204600F09D
:10048000E5FC074A6946204600F010FD0022694657
:10049000204600F024FD02B010BD00BF00300E4029
:1004A000801A060010B50B4C204600F079FB6368FB
:1004B00023F004036360236823F0FF0343F0070382
:1004C00023600549204600F04CFB636843F00203BB
:1004D000636010BD00500C40A086010008B50020EC
:1004E00000F058FC044B40F60802C3F8842C034982
:1004F000002000F063FC08BD0060084040420F008F
:1005000010B5074C204600F07DFB4FF4E13120464A
:1005100000F0C2FB0323E3600123E36510BD00BFCD
:1005200000100C4008B5FFF7EBFF094800F012F887
:10053000FFF780FFFFF79EFFFFF7B4FFFFF7CEFF47
:10054000FFF736FFFFF756FF00F006F808BD00BFC3
:1005500000400F407047FFFF08B5692000F0BCFA6B
:10056000014B186008BD00BF6C040010F0B40B68AC
:1005700013F0800F02D023F040030B6007460125E3
:100580003AE04B6903FB02F3B3FBF5F31CE01C46B6
:10059000B0EB040C27D4674506D98D60771CCF607B
:1005A0000A618C61CB6167460132B2F5807F1DDC48
:1005B0000C6814F0400FE4D0731C02FA03FC4B6982
:1005C00003FB0CF3B3FBF5F3DFF838C06345EBD95D
:1005D000DFF834C0634509D814F0800FD7D1741CFC
:1005E00023FA04F4D4E7CCF1000CD4E70136032E4F
:1005F00001DC0122D9E70135042D01DC0026F6E7F4
:10060000F0BC7047FF5E4C0900D01213F0B599B0F2
:1006100005460C465C22002101A801F0A5FA8023C2
:1006200000936369059323798DF804306946284661
:10063000FFF79CFF069BAB4227D0EB1A2ED41E4639
:10064000109B23F0400310936369159323798DF871
:10065000443010A92846FFF789FF169BAB421FD0F4
:10066000EB1A25D41F462B4B9D4223D90E982D1AE9
:1006700033D4AE423BDCBE4231DC6D460FCD0FC4FD
:1006800095E80F0084E80F0006E06D460FCD0FC41B
:1006900095E80F0084E80F0019B0F0BD5B42CEE78B
:1006A00010AD0FCD0FC495E80F0084E80F00F3E7FD
:1006B0005B42D7E74023089363690D9308A9284656
:1006C000FFF754FF0E9BAB42D0D108AD0FCD0FC446
:1006D00095E80F0084E80F00DEE76D42C9E710AD32
:1006E0000FCD0FC495E80F0084E80F00D4E7AF42A8
:1006F00007DB08AD0FCD0FC495E80F0084E80F00AD
:10070000CAE710AD0FCD0FC495E80F0084E80F00C5
:10071000C2E700BF80778E0630B4054600231C2058
:1007200000E001331C2817D103EB43020B4901EB16
:100730004202117981420FD003EB4302074C34F897
:100740001220AA42EDD803EB430204EB4202528886
:10075000AA42E6D30846E5E730BC7047281C001AD9
:1007600082B04FF47A7301930D4A936923F002012A
:1007700092698A4201D00A4A916123F00303094A2F
:100780001168094A914201D943F00403044A936174
:10079000019B5A1E0192002BFAD102B0704700BF94
:1007A000000005401C1C001AFF2C31011230054BC3
:1007B00053F8200010F0010F02D1C0F3046070471D
:1007C000112070470000054000F11202034B53F85E
:1007D0002220034B185C00EA92007047000005409D
:1007E000201C001A08B510280AD8DFE800F0440BD6
:1007F0000D18210924272A2D09093034383C4000DE
:10080000002008BD1E48FCE71E4BD3F82C3103F036
:100810000703042B01D01C48F3E70020F1E7194B34
:10082000D3F82C3103F00703042B27D01648E8E750
:10083000164B1868E5E7164B1868E2E7154B186881
:10084000DFE7144B5868DCE700F068F8D9E70021CF
:1008500000F098F8D5E7012100F094F8D1E70221E3
:1008600000F090F8CDE7032100F08CF8C9E70421EF
:1008700000F088F8C5E74FF40040C2E70648C0E73B
:10088000001BB7000030044040787D01F01B001AC7
:100890001C1C001A4800001080F0FA0238B505460A
:1008A0000C460879FFF79EFF6061194B2B44194AEB
:1008B000934221D818B3802323600023A360E36010
:1008C000B5FBF0F32361144A954203D903FB00F012
:1008D000A84207D021462846FFF798FEA3688BB1AF
:1008E000013BA360236983B1E2680AB1013AE26087
:1008F000013B2361002038BD4FF0FF30FBE74FF094
:10090000FF30F8E74FF0FF30F5E74FF0FF30F2E748
:10091000103A6BFF1005940BFF5E4C0970B582B066
:10092000164D6C6CC4F30360FFF75CFF0646144A77
:100930000192286C10F001001DD0C4F30742C4F3EB
:100940000131C4F30125C4F380100132013102AB3F
:100950001D4415F8043C14F0800F08D138B9580034
:10096000B2FBF0F2B6FBF1F000FB02F003E0B6FBE5
:10097000F1F002FB00F002B070BD00BF00000540C6
:100980000102040838B50C460846FFF70FFF05467C
:100990002046FFF719FF04462846FFF723FF0134DE
:1009A000B0FBF4F038BDFFFF30B400F11604A40032
:1009B00004F1804404F5A02464681B2813D811298D
:1009C0001AD00E4D25400AB145F400650BB145F033
:1009D000010545EA01611630800000F1804000F514
:1009E000A020416008E044F001041630800000F1CE
:1009F000804000F5A020446030BC7047FEF7FFE067
:100A00001B280DD800F116039B0003F1804303F56A
:100A1000A023586810F0010F04D1C0F304607047A0
:100A2000112070471120704708B5FFF7E9FFFFF765
:100A3000D9FE08BD71B901210AB141F00401022BB0
:100A40000AD0B0F5A17F0AD3A0F59170064B43F808
:100A5000301070470321EFE741F02001F1E720302B
:100A6000024B43F83010704700200540001005404D
:100A7000B0F5A17F09D3094AA0F5917052F8303042
:100A800043F0010342F830307047054A203052F8F5
:100A9000303043F0010342F8303070470020054009
:100AA00000100540B0F5A17F09D3094AA0F5917067
:100AB00052F8303023F0010342F830307047054AD5
:100AC000203052F8303023F0010342F830307047C4
:100AD000002005400010054010B50346B0F5A17F89
:100AE00008D3A0F591720D4951F8324014F001007D
:100AF00006D110BD00F12002094951F83240F5E756
:100B00001846FFF709FEFFF78FFF14F0E00F03D13F
:100B10000123B0FBF3F0ECE70223FAE700200540E5
:100B200000100540034B984201D083207047A52058
:100B3000704700BF00500C40044B984202D040F276
:100B4000022070474FF4F170704700BF00500C4016
:100B5000036823F47F43090289B2194301600261EB
:100B6000704770B506460C46FFF7E6FFFFF7B4FF87
:100B700002224FF0FF33002100E02946A3420BD9A7
:100B80004D1C01FB0223B0FBF3F39C42F6D2FF2D78
:100B9000F3D902320021F1E73046FFF7D9FF70BDEB
:100BA00010B50446FFF7BEFFFFF762FF2046FFF7D0
:100BB000C3FFFFF75DFF636823F0040363602368EE
:100BC00023F0FF0343F00703236002492046FFF7A9
:100BD000C8FF10BDA0860100094B98420BD003F559
:100BE0008053984209D0A3F58023984201D0002079
:100BF000704701207047022070470320704700BFF4
:100C000000100C4030B583B00446FFF7E5FF012328
:100C10001A4619460E4D35F81000FFF70BFF072353
:100C2000A3600023E3656360E3602362E3646365BC
:100C30002365084B9C4206D00323E3601023A36284
:100C4000019B03B030BD00232361A3690193F3E747
:100C50009C1C001A0020084038B505460C46FFF7DA
:100C6000BBFF0C4B33F81000FFF736FF2101B0FB40
:100C7000F1F1CAB2EB6843F08003EB602A60C1F384
:100C800007236B60EB6823F08003EB60B0FBF1F0AF
:100C9000000938BD941C001A2DE9F04F83B0019073
:100CA0008846FFF799FF324B33F81000FFF714FF27
:100CB00006464FF0FF3701244FF0000BA246D946FD
:100CC0002AE042424B1C17E00AB31746AB46A24645
:100CD00099460135AC421ED933093007A4FB000107
:100CE00004FB0311621908FB02F2002300F09CFDD3
:100CF00002460B460028E4DB9742EAD3002BE8D0FB
:100D0000190CE6D1022BDFD8002DDDD0E1E7174624
:100D1000AB46A246994601341FB10F2C01D80025DD
:100D2000D8E7B9F1000F1ED0019A1146D36843F0FD
:100D30008003D3605FFA89F31360C9F3072353601C
:100D4000D36823F08003D3604FEA0A13DBB20BF0C1
:100D50000F0213438B6233090AFB03F3DA4409FBE6
:100D60000AF9B3FBF9F9484603B0BDE8F08F00BFBC
:100D7000941C001A012909D1C0EBC000044B03EBFD
:100D800080000269137DDBB2042BFBD0704700BFEB
:100D90000000001070B50446074EC500C0EBC0034C
:100DA00006EB83039888FFF763FE2C1B56F824306C
:100DB0006C229A6170BD00BF000000102DE9F04167
:100DC000044688460B4DC600C0EBC0039F0005EBF0
:100DD00083039888FFF780FEB0FBF8F1EB594A08CF
:100DE0001A61341B55F824301869091A5961BDE895
:100DF000F08100BF00000010034B984201D0032097
:100E000070470420704700BF00400E4070B50D468B
:100E100014461E46FFF7F0FFFFF75EFE55B104FBD8
:100E200006F404EB40006400B0FBF4F0C0B20138FB
:100E3000C0B270BD04EB840304EB4304F1E7036824
:100E400023F0E06343EA01630360704738B5054669
:100E50000C46FFF7D1FF01231A461946FFF7EAFDBA
:100E60000021E960084A2260217161710B23284644
:100E7000FFF7CCFF000240F4001023795B0403F479
:100E8000602303432B6038BD801A0600012A07D077
:100E9000C368012202FA01F123EA0101C16070472F
:100EA000C36802FA01F11943C160704770B5054685
:100EB0000E46046824F46F2424F470640A600B79ED
:100EC000C3F10B03DBB24979FFF7A0FF44EA00242A
:100ED00033795B0403F4602323432B6070BD08B5B2
:100EE0000A710A68FFF7E2FF08BD012A0BD0036808
:100EF00023F0E06303600368012202FA01F123EAB0
:100F0000010101607047036802FA01F119430160B1
:100F1000704738B504460D460021FFF790FF25B90C
:100F2000236823F48033236038BD236843F480337F
:100F30002360F9E770B58AB005460E4614464CF2B8
:100F400050330993062818D0002301222946042093
:100F5000FFF72AFD4A4A536C43F0010353648DF8AE
:100F6000085001A93046FFF799FC464B9E4216D91E
:100F7000019B13F0400F03D0FEE7FFF7F1FBE3E71F
:100F800013F0800F05D023F0800301930025012684
:100F900007E0049B013304930125002601E00025AE
:100FA0002E469DF80820019B43EA0263059A43EA16
:100FB0000243039A43EA0233049A43EA022343F4C6
:100FC00000632F4A53642E4B1B6C13F0010FFAD0B1
:100FD0000023012209210420FFF7E6FC06B34CF2AE
:100FE00050330993099B5A1E0992002BFAD1019B99
:100FF00043F0800301939DF8082043EA0263059AB9
:1010000043EA0243039A43EA0233049A43EA02237F
:1010100043F400631A4A5364002C2ED10AB070BD09
:10102000002DF9D04CF250330993099B5A1E0992B6
:10103000002BFAD1049B5A1E04929DF80810019BC4
:1010400043EA0163059943EA0143039943EA013303
:1010500043EA022343F40063094A5364DCE70A4885
:1010600000EB8401CB788A78497810F82400FFF7E8
:101070009BFC0134112CF2D9D0E70024FAE700BF21
:101080000000054080778E06A41C001A08B50220D7
:10109000FFF708FD08BD036803F48033890189B2B6
:1010A000194301607047036823F48033036001290A
:1010B00000D07047036843F480330360F9E7FFFF13
:1010C00008B50B4A0B4B9A6003F50C731B6903F4CC
:1010D0007F63202B04D0FFF765F9FFF723FA08BDE3
:1010E000044AD2F8883043F47003C2F88830F2E73B
:1010F0000000001A00ED00E07047FFFF10B572B667
:10110000194B1A4A1A600433194A1A60002305E081
:10111000184A4FF0FF3142F823100133072BF7D95B
:1011200062B6154B07E003F10C049A685968186819
:10113000FFF72CF82346114A9342F4D306E01C46ED
:10114000596854F8080BFFF730F823460C4A9342CD
:10115000F5D3FFF7B5FF00F0E3FCFFF7CDFF00F09C
:10116000DFFA30BFFDE700BF003105400010DF109F
:10117000FFF7DF0180E200E01401001A5001001ABD
:101180007801001A70477047044B1860044A1368CE
:1011900043F0010313600120704700BF38000010C6
:1011A000001000E030B40B4D00EB80002C182856E6
:1011B000087094F90110117094F902201A7094F9D2
:1011C0000320029B1A7094F90420039B1A7030BC10
:1011D000704700BFEC1C001A70B584B00C460023A9
:1011E0008DF80F308DF80E308DF80D308DF80C30F5
:1011F0008DF80B300DF10B03019303AB00930DF150
:101200000D030DF10E020DF10F01FFF7CBFF052CC1
:1012100000F2A580DFE804F0098127456303514807
:10122000FFF798F9012004B070BD9DF80F109DF8EC
:101230000E309DF80D2042F0D00203EB41134A49D5
:1012400041F823209DF80C309DF90B20012000FA75
:1012500002F1444C03F5006354F8232022EA010212
:1012600044F82320DFE79DF80F109DF80E309DF81D
:101270000D2042F0C00203EB41133B4941F823200B
:101280009DF80C309DF90B20012000FA02F1354C3D
:1012900003F5006354F8232022EA010244F82320D6
:1012A000C1E79DF80F109DF80E309DF80D2042F01B
:1012B000D80203EB41132C4941F823209DF80C3050
:1012C0009DF90B20012000FA02F1264C03F5006382
:1012D00054F8232022EA010244F82320A3E79DF8D2
:1012E0000F109DF80E309DF80D2042F0C80203EB60
:1012F00041131D4941F823209DF80C309DF90B2026
:10130000012000FA02F1174C03F5006354F8232082
:1013100022EA010244F8232085E79DF80F109DF88A
:101320000E309DF80D2042F0D00203EB41130E4920
:1013300041F823209DF80C009DF90B1001228A40F2
:10134000084B00F5006553F82560324343F825202B
:10135000C9B203EB401300225A54204663E7002031
:1013600061E700BF00400F400060084010B584B046
:101370000C4600238DF80F308DF80E308DF80D30AF
:101380008DF80C308DF80B300DF10B03019303AB8E
:1013900000930DF10D030DF10E020DF10F01FFF79A
:1013A00001FF9DF80C309DF80B20003C18BF012474
:1013B0005B0103F1402303F570239C54012004B02A
:1013C00010BDFFFF014BD3E900017047580000102A
:1013D00018B1044B07221A607047024B00221A60B2
:1013E000704700BF10E000E038B502460B4652EAF5
:1013F000030128D010F1FF3443F1FF35002D08BF61
:10140000322C25D21349C1E9002313490C68A4FBEF
:10141000000104FB03114FF47A72002300F004FA78
:101420000138B0F1807F09D20C4B58600C4AE021A2
:1014300082F8231000229A6007221A600120FFF729
:10144000C7FF012005E00020FFF7C2FF002000E0F9
:10145000002038BD400000106C04001010E000E0D7
:1014600000ED00E008B5074A13685168013341F107
:10147000000113605160044B1B6813B1034A1068EC
:10148000984708BD58000010600000105000001080
:1014900010B510B1012816D010BD01231A46194607
:1014A0000220FFF7C7FA0A4C01212046FFF7FBFD97
:1014B000636823F00F0343F00803636000212046B4
:1014C000FFF7E9FDE8E70248FFF7E0FDE4E700BFCA
:1014D00000100E4000EB4000034B53F820305869D9
:1014E00000F00100704700BFD41D001A00EB40005F
:1014F000034B53F82030586900F02000704700BFBC
:10150000D41D001A00EB4000024B53F8203018683D
:10151000C0B27047D41D001A00EB4000024B53F8D4
:1015200020301960704700BFD41D001A2DE9F84320
:1015300004468946194D00EB400305EB830655F838
:1015400023703846FFF75EFB49463846FFF784FBB9
:101550000723BB603B680123FB6530797379B2795F
:1015600042F018020E4903EB401341F82320F079B2
:10157000337A727A42F0D00203EB401341F8232011
:10158000012C01D0BDE8F883064AD36C43F0300348
:10159000D3641A22C1F80823F4E700BFD41D001A4F
:1015A000006008400010084038B505460C46FFF7BB
:1015B00091FF00B938BD2846FFF7A4FF2070012035
:1015C000F8E738B504460D462046FFF78FFF0028A0
:1015D000FAD029462046FFF79FFF38BD38B50546AB
:1015E0000C46217821B12846FFF7EBFF0134F8E7DC
:1015F00038BDFFFF08B5044B1B681B68DB68034A56
:101600001068984708BD00BF700400106400001007
:1016100008B5FEF7A1FF1A4B1868FFF7B5FD0120CA
:101620000021FFF7E1FE05210020FFF7D5FD002195
:101630002420FFF7D1FD00212520FFF7CDFD00215B
:101640002620FFF7C9FD00212720FFF7C5FD012156
:101650002820FFF7C1FD01212920FFF7BDFD012151
:101660002A20FFF7B9FD01212B20FFF7B5FD01214D
:101670002C20FFF7B1FD01212D20FFF7ADFD08BDA6
:101680006C04001010B5044610461946044BD3E90B
:10169000002300F0C9F8C4E902010023237410BD3F
:1016A00040000010F8B50446057C3DB9FFF78AFEFE
:1016B000C4E90001012323742846F8BDFFF782FE28
:1016C00023686268C61A61EB0207D4E902239F42CD
:1016D00008BF964203D3002323740125ECE70025BD
:1016E000EAE7FFFF08B50C4A13880C49C8540133D8
:1016F0009BB21380B3F5806F02D020B1002008BDEB
:1017000000201080FBE705490320FFF767FF024B2D
:1017100000221A800120F2E7680000106C0000101F
:1017200030B597B0FFF774FF4FF4E1310320FFF7B6
:10173000FDFE374B149300258DF854508DF855500D
:10174000344C14A92046FFF781FB01212046FFF706
:10175000E0FB314A14A92046FFF7A8FB01221146FD
:101760002046FFF7C2FB012211462046FFF78EFB01
:101770002846FFF78DFE002200230CA8FFF782FF0A
:10178000C822002306A8FFF77DFF00220023684639
:10179000FFF778FF0FE021490320FFF71FFF2049E3
:1017A0000320FFF71BFF1F490320FFF717FF6846C1
:1017B000FFF778FF28B90CA8FFF774FF0028F6D0D0
:1017C000E9E70DF14F010320FFF7EEFE9DF84F0012
:1017D000FFF788FF9DF84F3083B100212B20FFF7E2
:1017E000C5FD01212A20FFF7C1FD00212C20FFF7B4
:1017F000BDFD01212D20FFF7B9FDDCE700212A20E6
:10180000FFF7B4FD01212B20FFF7B0FDEDE700BF8E
:10181000801A060000300E40400D03001C1E001A06
:10182000DC1F001AB426001A53B94AB9002908BFB0
:1018300000281CBF4FF0FF314FF0FF3000F06EB9B1
:10184000ADF1080C6DE904CE00F006F8DDF804E017
:10185000DDE9022304B070472DE9F047089D0446F6
:101860008C46002B40F083808A42174647D9B2FA53
:1018700082F242B1C2F1200024FA00F09140974078
:1018800040EA010C94404FEA1748230CBCFBF8F6E1
:101890001FFA87FE08FB16C143EA014306FB0EF15F
:1018A000994209D9FB1806F1FF3080F0198199425D
:1018B00040F21681023E3B445B1AA4B2B3FBF8F03F
:1018C00008FB103344EA034400FB0EFEA64509D989
:1018D0003C1900F1FF3380F00581A64540F20281FA
:1018E00002383C4440EA0640A4EB0E0400261DB139
:1018F000D4400023C5E900433146BDE8F08702B972
:10190000FFDEB2FA82F2002A50D1CB1B4FEA174E0B
:101910001FFA87F80126B3FBFEFC210C0EFB1C33DB
:1019200041EA034108FB0CF38B4207D979180CF10B
:10193000FF3002D28B4200F2E9808446C91AA3B27A
:10194000B1FBFEF00EFB101143EA014408FB00F866
:10195000A04507D93C1900F1FF3302D2A04500F29F
:10196000D9801846A4EB080440EA0C40BFE78B423C
:1019700009D9002D00F0B1800026C5E900013046EC
:101980003146BDE8F087B3FA83F6002E4AD18B4288
:1019900002D3824200F2B880841A61EB0301012075
:1019A0008C46002DA8D0C5E9004CA5E7C2F1200364
:1019B00020FA03F6974001FA02F04FEA174ED94099
:1019C0003043030CB1FBFEF61FFA87F80EFB16112D
:1019D00043EA014306FB08F1994204FA02F409D9EB
:1019E000FB1806F1FF3C80F08D80994240F28A801E
:1019F000023E3B445B1A81B2B3FBFEF00EFB103398
:101A000041EA034100FB08F38B4207D9791800F142
:101A1000FF3C73D28B4271D902383944CB1A40EA69
:101A2000064678E7C6F1200C03FA06F422FA0CF316
:101A30001C4320FA0CF701FA06F34FEA144E21FA80
:101A40000CF11F433B0CB1FBFEF91FFA84F80EFBAF
:101A5000191143EA014109FB08FA8A4502FA06F224
:101A600000FA06F308D9611809F1FF3048D28A4517
:101A700046D9A9F102092144A1EB0A01BFB2B1FB89
:101A8000FEF00EFB101147EA014700FB08F8B845CD
:101A900007D9E71900F1FF312ED2B8452CD9023809
:101AA000274440EA0940A7EB0807A0FB02894F45FD
:101AB000C64649461AD317D05DB1B3EB0E0267EBA9
:101AC000010707FA0CFCF2404CEA0202F740C5E9B4
:101AD000002700263146BDE8F0872E4628460BE752
:101AE0000646E9E61846FDE64345E5D2B8EB020EA8
:101AF00069EB04010138DFE70846D2E760468DE76D
:101B00008146B9E7664675E730464AE7ACF1020C14
:101B1000394413E702383C4424E700BF704700BF54
:101B200070B50D4D0D4C641BA4100026A64209D1C2
:101B30000B4D0C4CFFF727FB641BA4100026A6429C
:101B400005D170BD55F8043B98470136EEE755F8CE
:101B5000043B98470136F2E7B826001AB826001A67
:101B6000B826001AB826001A02440346934200D150
:101B7000704703F8011BF9E7010F0101020044005F
:101B80000201440002024400020A4000020B40002D
:101B9000020C400001005000010150000102500001
:101BA00001065000060150000604500006055000D2
:101BB000060754000608540006095000060A5000A3
:101BC000060B5000060C50000F04F0000103D50076
:101BD0000104D50007011600070256000203520057
:101BE0000204520009055200090657000602570078
:101BF00000000000000400080009010905000501BB
:101C00000502000E010B010C030003030304050F82
:101C100005100305030603070208FFFF001BB700BA
:101C2000030F0F0FFF00FFFF000005000A00200058
:101C3000240009004000400005006000A6000400E8
:101C4000C000C3000200E000E0000100000100014C
:101C50000300200120010600400140010C00420168
:101C60004201190062016201130082018201120027
:101C7000A201A2011100C201C2011000E201E201B1
:101C80000F00020202020E00220222020D002302B5
:101C900023021C00C201A2018201620181008200B4
:101CA000A100A20000010100090901000A090100C8
:101CB0000107010102090100060901000C090101E7
:101CC0000D0901000E0901000F09010010090100B2
:101CD000110901001209010013090100141101008A
:101CE000191101001A1101001B1101000401000269
:101CF00001070500030D01050001080402000202AE
:101D000004030002030400000200070400030C03A4
:101D10000204050903010405080203040503020483
:101D2000040504060C000208060B00030706090060
:101D30000305060704050F0604000303040400025C
:101D40000404050002050406000206040804050C4C
:101D5000040A04050E010300000A011400000F012B
:101D60001200000D011100000C0110000003070714
:101D700000030F00010000010000000000060A003F
:101D80000306060804051006050003040601000307
:101D900000040904050D010400000B010F000002FE
:101DA0000100000004010100000801020000090117
:101DB00006000109020004050002010405010202F7
:101DC000040502020A00000E020B00010B020C00C7
:101DD000010CFFFF0010084006040206050218006F
:101DE00000100840090507090607180000200840F0
:101DF000000000000000190000100C400701060759
:101E000002061A0000100C40010F010110011A0017
:101E100000200C400203020204021B004C6F72659A
:101E20006D20697073756D20646F6C6F72207369BB
:101E30007420616D65742C20636F6E7365637465C7
:101E40007475722061646970697363696E67206577
:101E50006C69742C2073656420646F2065697573E8
:101E60006D6F642074656D706F7220696E63696454
:101E70006964756E74207574206C61626F72652080
:101E8000657420646F6C6F7265206D61676E612090
:101E9000616C697175612E20557420656E696D20C5
:101EA0006164206D696E696D2076656E69616D2C67
:101EB0002071756973206E6F737472756420657814
:101EC00065726369746174696F6E20756C6C616DA5
:101ED000636F206C61626F726973206E6973692031
:101EE000757420616C697175697020657820656111
:101EF00020636F6D6D6F646F20636F6E73657175B6
:101F000061742E204475697320617574652069724F
:101F100075726520646F6C6F7220696E20726570D7
:101F2000726568656E646572697420696E20766F8B
:101F30006C7570746174652076656C697420657366
:101F400073652063696C6C756D20646F6C6F72656E
:101F500020657520667567696174206E756C6C61AB
:101F60002070617269617475722E204578636570A6
:101F7000746575722073696E74206F636361656345
:101F8000617420637570696461746174206E6F6E32
:101F90002070726F6964656E742C2073756E742086
:101FA000696E2063756C706120717569206F66665B
:101FB00069636961206465736572756E74206D6F05
:101FC0006C6C697420616E696D206964206573743E
:101FD000206C61626F72756D2E0000005365642085
:101FE0007574207065727370696369617469732CAC
:101FF00020756E6465206F6D6E69732069737465FA
:10200000206E61747573206572726F7220736974CB
:1020100020766F6C7570746174656D206163637593
:1020200073616E7469756D20646F6C6F72656D712C
:102030007565206C617564616E7469756D2C2074B2
:102040006F74616D2072656D206170657269616D7C
:1020500020656171756520697073612C20717561EF
:102060006520616220696C6C6F20696E76656E74A4
:102070006F72652076657269746174697320657426
:102080002071756173692061726368697465637436
:102090006F20626561746165207669746165206492
:1020A000696374612073756E742C206578706C6937
:1020B0006361626F2E204E656D6F20656E696D20C5
:1020C000697073616D20766F6C7570746174656D85
:1020D0002C207175696120766F6C75707461732046
:1020E0007369742C2061737065726E6174757220EF
:1020F000617574206F6469742061757420667567FA
:1021000069742C20736564207175696120636F6E3A
:1021100073657175756E747572206D61676E692077
:10212000646F6C6F72657320656F732C20717569B5
:1021300020726174696F6E6520766F6C7570746162
:1021400074656D207365717569206E65736369755B
:102150006E742C206E6571756520706F72726F20C1
:10216000717569737175616D206573742C2071755B
:102170006920646F6C6F72656D20697073756D2C6A
:10218000207175696120646F6C6F722073697420AF
:10219000616D657420636F6E7365637465747572C9
:1021A0002061646970697363695B6E675D76656CF5
:1021B00069742C207365642071756961206E6F6E7F
:1021C000206E756D7175616D205B646F5D20656952
:1021D0007573206D6F64692074656D706F72612016
:1021E000696E63695B64695D64756E742C207574D7
:1021F000206C61626F726520657420646F6C6F7211
:1022000065206D61676E616D20616C697175616DCE
:10221000207175616572617420766F6C7570746180
:1022200074656D2E20557420656E696D2061642083
:102230006D696E696D612076656E69616D2C2071C6
:10224000756973206E6F737472756D5B645D206564
:102250007865726369746174696F6E656D20756C01
:102260006C616D20636F72706F7269732073757328
:102270006369706974206C61626F72696F73616DFC
:102280002C206E69736920757420616C69717569A1
:102290006420657820656120636F6D6D6F646920CF
:1022A000636F6E73657175617475723F20517569E6
:1022B0007320617574656D2076656C2065756D2081
:1022C0006975726520726570726568656E646572A5
:1022D00069742C2071756920696E20656120766FA4
:1022E0006C7570746174652076656C6974206573B3
:1022F00073652C207175616D206E6968696C206D45
:102300006F6C65737469616520636F6E7365717559
:10231000617475722C2076656C20696C6C756D2CFF
:102320002071756920646F6C6F72656D2065756DC5
:10233000206675676961742C2071756F20766F6CEB
:102340007570746173206E756C6C61207061726958
:10235000617475723F205B33335D20417420766574
:10236000726F20656F73206574206163637573619C
:102370006D757320657420697573746F206F64695F
:102380006F206469676E697373696D6F732064751C
:1023900063696D75732C2071756920626C616E6460
:1023A0006974696973207072616573656E746975AB
:1023B0006D20766F6C7570746174756D2064656CDA
:1023C000656E69746920617471756520636F7272DE
:1023D000757074692C2071756F7320646F6C6F72E7
:1023E00065732065742071756173206D6F6C657302
:1023F00074696173206578636570747572692073A0
:10240000696E742C206F6263616563617469206317
:10241000757069646974617465206E6F6E20707286
:102420006F766964656E742C2073696D696C69716F
:1024300075652073756E7420696E2063756C7061AC
:102440002C20717569206F66666963696120646517
:10245000736572756E74206D6F6C6C697469612040
:10246000616E696D692C20696420657374206C61EC
:10247000626F72756D20657420646F6C6F72756D1C
:1024800020667567612E20457420686172756D2025
:1024900071756964656D20726572756D2066616322
:1024A000696C697320657374206574206578706544
:1024B000646974612064697374696E6374696F2EF2
:1024C000204E616D206C696265726F2074656D705D
:1024D0006F72652C2063756D20736F6C757461204D
:1024E0006E6F6269732065737420656C6967656ED1
:1024F0006469206F7074696F2C2063756D717565E8
:10250000206E6968696C20696D70656469742C203F
:1025100071756F206D696E75732069642C207175FB
:102520006F64206D6178696D6520706C61636561B1
:10253000742C2066616365726520706F7373696DBA
:1025400075732C206F6D6E697320766F6C75707467
:10255000617320617373756D656E6461206573745A
:102560002C206F6D6E697320646F6C6F72207265C2
:1025700070656C6C656E6475732E2054656D706F3C
:10258000726962757320617574656D207175696219
:10259000757364616D20657420617574206F666663
:1025A0006963696973206465626974697320617520
:1025B0007420726572756D206E65636573736974DE
:1025C00061746962757320736165706520657665F5
:1025D0006E6965742C20757420657420766F6C7537
:1025E00070746174657320726570756469616E647E
:1025F00061652073696E74206574206D6F6C6573FE
:1026000074696165206E6F6E207265637573616EAB
:102610006461652E2049746171756520656172750C
:102620006D20726572756D206869632074656E65D2
:1026300074757220612073617069656E74652064C1
:10264000656C65637475732C2075742061757420D6
:102650007265696369656E64697320766F6C757005
:1026600074617469627573206D61696F726573203E
:10267000616C69617320636F6E73657175617475E8
:10268000722061757420706572666572656E64692A
:102690007320646F6C6F726962757320617370650B
:1026A00072696F72657320726570656C6C6174E23B
:0826B00080A600003B0D0A00AA
:0826B800A0F1FF7F010000000A
:1026C00000100A4022000000750D001A00000000F2
:1026D00000000000000000000000000000000E40AC
:1026E00001000000750D001A00000000000000004D
:1026F000000000000000000000CB280CFFFFFFFFDF
:082700000100000000000000D0
:040000051A0010FDD0
:00000001FF
