:020000041A00E0
:10000000008000105911001A7B01001A7D01001AAE
:100010007F01001A8101001A8301001A2C67FF5327
:100020000000000000000000000000008501001A30
:100030008701001A000000008901001A3114001A1B
:100040007901001A7901001A7901001A00000000F4
:100050007901001A7901001A7901001A7901001A50
:100060001917001A7901001A7901001A7901001A8A
:100070007901001A7901001A7901001A7901001A30
:100080007901001A7901001A7901001A7901001A20
:100090007901001A7901001A7901001A7901001A10
:1000A000BD01001A7901001A7D13001A8713001A86
:1000B0007901001A7901001A7901001A7901001AF0
:1000C0007901001A7901001A7901001A7901001AE0
:1000D0007901001A7901001A7901001A7901001AD0
:1000E0007901001A7901001A7901001A7901001AC0
:1000F000000000007901001A7901001A7901001A44
:10010000000000007901001A7901001A7901001A33
:100110007901001AFC1E001A0000001048000000BF
:10012000FC1E001A0000081000000000FC1E001A4F
:100130000000002000000000FC1E001A00800020CB
:1001400000000000FC1E001A00C00020000000009B
:10015000480000104C0000000000081000000000E3
:1001600000000020000000000080002000000000CF
:1001700000C0002000000000FEE7FEE7FEE7FEE70B
:10018000FEE7FEE7FEE7FEE7FEE7FEE70023934219
:100190000AD210B450F8044B41F8044B0433934294
:1001A000F8D35DF8044B7047704700238B4204D2AC
:1001B000002240F8042B0433F8E7704708B500200C
:1001C00001F01EF808BDFFFFFFFFFFFFFFFFFFFF6D
:1001D000FFFFFFFFFFFFFFFFFFFFFFFFFFFFFFFF2F
:1001E000FFFFFFFFFFFFFFFFFFFFFFFFFFFFFFFF1F
:1001F000FFFFFFFFFFFFFFFFFFFFFFFFFFFFFFFF0F
:10020000FFFFFFFFFFFFFFFFFFFFFFFFFFFFFFFFFE
:10021000FFFFFFFFFFFFFFFFFFFFFFFFFFFFFFFFEE
:10022000FFFFFFFFFFFFFFFFFFFFFFFFFFFFFFFFDE
:10023000FFFFFFFFFFFFFFFFFFFFFFFFFFFFFFFFCE
:10024000FFFFFFFFFFFFFFFFFFFFFFFFFFFFFFFFBE
:10025000FFFFFFFFFFFFFFFFFFFFFFFFFFFFFFFFAE
:10026000FFFFFFFFFFFFFFFFFFFFFFFFFFFFFFFF9E
:10027000FFFFFFFFFFFFFFFFFFFFFFFFFFFFFFFF8E
:10028000FFFFFFFFFFFFFFFFFFFFFFFFFFFFFFFF7E
:10029000FFFFFFFFFFFFFFFFFFFFFFFFFFFFFFFF6E
:1002A000FFFFFFFFFFFFFFFFFFFFFFFFFFFFFFFF5E
:1002B000FFFFFFFFFFFFFFFFFFFFFFFFFFFFFFFF4E
:1002C000FFFFFFFFFFFFFFFFFFFFFFFFFFFFFFFF3E
:1002D000FFFFFFFFFFFFFFFFFFFFFFFFFFFFFFFF2E
:1002E000FFFFFFFFFFFFFFFFFFFFFFFFFFFFFFFF1E
:1002F000FFFFFFFFFFFFFFFFFFFFFFFFFFFFFFFF0E
:100300000022052A19D870B40C4911F8125001EBDB
:1003100042014C780A4B05F5006653F8261001207F
:10032000A040014343F8261003EB45130021195563
:100330000132052AE8D970BC70477047001C001ACA
:1003400000400F400023032B16D830B40B4911F89E
:10035000132001EB43014D78094C02F5006254F87B
:1003600022100120A84021EA000144F822100133A4
:10037000032BEBD930BC7047704700BFF81B001A45
:1003800000400F400023082B16D830B40B4911F859
:10039000132001EB43014D78094C02F5006254F83B
:1003A00022100120A84021EA000144F82210013364
:1003B000082BEBD930BC7047704700BF0C1C001AEB
:1003C00000400F4010B582B0084C6946204600F04E
:1003D000C5F9074A6946204600F02BFA0022694613
:1003E000204600F03FFA02B010BD00BF00300E40C2
:1003F000801A060010B50B4C204600F035FE6368ED
:1004000023F004036360236823F0FF0343F0070332
:1004100023600549204600F008FE636843F00203AC
:10042000636010BD00500C40A086010008B500209C
:1004300000F046FE044B40F60802C3F8842C034942
:10044000002000F04FFE08BD0060084040420F0051
:1004500010B5074C204600F093F84FF4E1312046E8
:1004600000F0D8F80323E3600123E36510BD00BF6B
:1004700000100C4008B5FFF7EBFF094800F008FD3D
:10048000FFF780FFFFF79EFFFFF7B4FFFFF7CEFFF8
:10049000FFF736FFFFF756FF00F0F0FC08BD00BF86
:1004A00000400F4000231C2B12D810B4094A02EB65
:1004B000830112F823404A78488802EB4412064927
:1004C00041F8220001331C2BF0D95DF8044B704732
:1004D000704700BF281C001A0060084010B5174A7A
:1004E000D2F8203123F4704343F41043C2F8203192
:1004F000D2F8243123F4704343F41043C2F824317A
:1005000001220F49062000F0C5FC00244CB10B4B22
:100510005A6822F00C025A605A6842F003025A608C
:1005200010BD084800EB840101238A78497810F84F
:10053000240000F0E5FB0134E8E700BF0030044090
:1005400000CB280C241C001A08B5FFF7ABFFFFF7FF
:10055000C5FF08BD094B984209D003F58053984266
:1005600007D0A3F58023984205D0002070470220D1
:100570007047032070470120704700BF00100C40F7
:1005800030B583B00446FFF7E5FF01231A4619464C
:100590000E4D35F8100000F0F9FB0723A36000238F
:1005A000E3656360E3602362E36463652365084B8E
:1005B0009C4206D00323E3601023A362019B03B097
:1005C00030BD00232361A3690193F3E7A41C001A43
:1005D0000020084038B505460C46FFF7BBFF0C4B22
:1005E00033F8100000F024FC2301B0FBF3F3D9B280
:1005F000EA6842F08002EA602960C3F307226A6079
:10060000EA6822F08002EA60B0FBF3F0000938BD2E
:100610009C1C001A2DE9F04F83B001908846FFF72B
:1006200099FF324B33F8100000F002FC06464FF001
:10063000FF3701244FF0000BA246D9462AE0424280
:100640004B1C17E00AB31746AB46A2469946013544
:10065000AC421ED933093007A4FB000104FB03118F
:10066000621908FB02F2002301F016F902460B465C
:100670000028E4DB9742EAD3002BE8D0190CE6D13E
:10068000022BDFD8002DDDD0E1E71746AB46A246AE
:10069000994601341FB10F2C01D80025D8E7B9F1D4
:1006A000000F1ED0019A1146D36843F08003D36037
:1006B0005FFA89F31360C9F307235360D36823F00B
:1006C0008003D3604FEA0A13DBB20BF00F0213432F
:1006D0008B6233090AFB03F3DA4409FB0AF9B3FB23
:1006E000F9F9484603B0BDE8F08F00BF9C1C001A22
:1006F000034B984201D0032070470420704700BF8D
:1007000000400E4070B50D4614461E46FFF7F0FF40
:1007100000F08EFB55B104FB06F404EB40006400CE
:10072000B0FBF4F0C0B20138C0B270BD04EB84037A
:1007300004EB4304F1E7036823F0E06343EA01615B
:1007400001607047043150F82130002B04DAC3F304
:1007500089131380012070470020704738B5054683
:100760000C46FFF7C5FF01231A46194600F00EFBA1
:100770000021E960084A2260217161710B2328463B
:10078000FFF7C0FF000240F400132079400400F49A
:1007900060201843286038BD801A060008B54FF461
:1007A0008072C26000220260FFF7A2FF00F026FB09
:1007B00008BD08B5FFF7C6FF08BD012A0AD01AB167
:1007C000022A0FD000207047006BC84000F00100E3
:1007D000C0B270470831C9B2006BC84000F00100D8
:1007E000C0B27047036B1B0C14BF01200020704780
:1007F000012A06D0C36801228A4023EA0203C360AB
:10080000704710B4C4688A401443C4605DF8044B58
:10081000704708B5012904D932B1036843F0006379
:100820000360FFF788FF08BD036823F000630360DF
:10083000F7E770B505460E46046824F46F2424F4E7
:1008400070640A600B79C3F10B03DBB24979FFF7DF
:1008500059FF44EA002033795B0403F46023034327
:100860002B6070BD08B50A710A68FFF7E2FF08BD8A
:10087000012A0AD0026822F0E062026003680122C5
:100880008A4023EA02030360704710B404688A4078
:10089000144304605DF8044B704738B504460D46B8
:1008A0000021FFF748FF25B9236823F48033236034
:1008B00038BD236843F480332360F9E7F0B40B6854
:1008C00013F0800F02D023F040030B600746012590
:1008D0003AE04B6903FB02F3B3FBF5F31CE01C4663
:1008E000B0EB040C27D4674506D98D60771CCF6028
:1008F0000A618C61CB6167460132B2F5807F1DDCF5
:100900000C6814F0400FE4D0731C02FA03FC4B692E
:1009100003FB0CF3B3FBF5F3DFF838C06345EBD909
:10092000DFF834C0634509D814F0800FD7D1741CA8
:1009300023FA04F4D4E7CCF1000CD4E70136032EFB
:1009400001DC0122D9E70135042D01DC0026F6E7A0
:10095000F0BC7047FF5E4C0900D01213F0B599B09F
:1009600005460C465C22002101A801F03BF98023DA
:1009700000936369059323798DF80430694628460E
:10098000FFF79CFF069BAB4227D0EB1A2ED41E46E6
:10099000109B23F0400310936369159323798DF81E
:1009A000443010A92846FFF789FF169BAB421FD0A1
:1009B000EB1A25D41F462B4B9D4223D90E9BED1AD3
:1009C00033D4AE423BDCBE4231DC6D460FCD0FC4AA
:1009D00095E80F0084E80F0006E06D460FCD0FC4C8
:1009E00095E80F0084E80F0019B0F0BD5B42CEE738
:1009F00010AD0FCD0FC495E80F0084E80F00F3E7AA
:100A00005B42D7E74023089363690D9308A9284602
:100A1000FFF754FF0E9BAB42D0D108AD0FCD0FC4F2
:100A200095E80F0084E80F00DEE76D42C9E710ADDE
:100A30000FCD0FC495E80F0084E80F00D4E7AF4254
:100A400007DB08AD0FCD0FC495E80F0084E80F0059
:100A5000CAE710AD0FCD0FC495E80F0084E80F0072
:100A6000C2E700BF80778E0630B4054600231C2005
:100A700000E001331C2818D103EB430251000C4A5B
:100A80000A441479844210D003EB43014A00084918
:100A90008A5AAA42EDD803EB43025100044A0A44A1
:100AA0005288AA42E5D32046E4E730BC704700BF35
:100AB000B81C001A82B04FF47A7301930D4A9369FF
:100AC00023F0020192698A4201D00A4A916123F01F
:100AD0000303094A1168094A914201D943F004030A
:100AE000044A9361019B5A1E0192002BFAD102B075
:100AF000704700BF00000540201C001AFF2C310188
:100B00001230054B53F8200010F0010F02D1C0F352
:100B100004607047112070470000054000F1120288
:100B2000034B53F82220034B185C00EA92007047F5
:100B300000000540B01C001A08B510280AD8DFE8EC
:100B400000F0440B0D18210924272A2D09093034FF
:100B5000383C400000203AE01E4838E01E4BD3F8F5
:100B60002C3103F00703042B01D01C482FE0002098
:100B70002DE0194BD3F82C3103F00703042B27D0B9
:100B8000164824E0164B186821E0164B18681EE042
:100B9000154B18681BE0144B586818E000F068F813
:100BA00015E0002100F09AF811E0012100F096F81C
:100BB0000DE0022100F092F809E0032100F08EF828
:100BC00005E0042100F08AF801E04FF4004008BD80
:100BD0000648FCE7001BB7000030044040787D0168
:100BE000F41B001A201C001A4800001080F0FA02C2
:100BF00038B505460C460879FFF79EFF6061194B32
:100C00002B44194A934221D818B380232360002330
:100C1000A360E360B5FBF0F32361144A954203D966
:100C200003FB00F0A84207D021462846FFF796FEB6
:100C3000A3688BB1013BA360236983B1E2680AB169
:100C4000013AE260013B2361002038BD4FF0FF30E4
:100C5000FBE74FF0FF30F8E74FF0FF30F5E74FF0DC
:100C6000FF30F2E7103A6BFF1005940BFF5E4C0962
:100C700030B583B0174D6C6CC4F30360FFF75CFFB5
:100C8000154B1B6801932B6C13F0010F20D0C4F39C
:100C90000743C4F30132C4F30121C4F380150133C7
:100CA00001320DF1080C614411F8041C14F0800F9E
:100CB00008D13DB94900B3FBF1F3B0FBF2F000FB02
:100CC00003F003E0B0FBF2F003FB00F003B030BD33
:100CD0000020FBE700000540AC1C001A38B50C46AC
:100CE0000846FFF70DFF05462046FFF717FF0446AD
:100CF0002846FFF721FF0134B0FBF4F038BDFFFFB9
:100D000030B400F11604A40004F1804404F5A024DA
:100D100064681B2813D811291AD00E4D25400AB13A
:100D200045F400650BB145F0010545EA0165163053
:100D3000800000F1804000F5A020456008E044F00C
:100D400001041630800000F1804000F5A0204460CE
:100D500030BC7047FEF7FFE01B280CD8163080002F
:100D600000F1804000F5A020406810F0010F04D190
:100D7000C0F304607047112070471120704708B518
:100D8000FFF7EAFFFFF7D8FE08BDFFFF71B90121A9
:100D90000AB141F00401022B0AD0B0F5A17F0AD3B9
:100DA000A0F59170064B43F8301070470321EFE730
:100DB00041F02001F1E72030024B43F8301070473A
:100DC0000020054000100540B0F5A17F09D3094A75
:100DD000A0F5917052F8303043F0010342F8303002
:100DE0007047054A203052F8303043F0010342F892
:100DF000303070470020054000100540B0F5A17F5D
:100E000009D3094AA0F5917052F8303023F001035C
:100E100042F830307047054A203052F8303023F025
:100E2000010342F8303070470020054000100540B3
:100E300010B5B0F5A17F09D3A0F591730D4A52F812
:100E4000334014F0010F07D1002010BD00F1200342
:100E5000094A52F83340F4E7FFF706FEFFF78FFF29
:100E600014F0E00F03D10123B0FBF3F0EDE7022310
:100E7000FAE700BF002005400010054008B56920D2
:100E8000FFF7D6FF014B186008BD00BF8C000010B3
:100E90007047FFFF70B58AB005460E4614464CF207
:100EA00050330993062818D0002301222946042034
:100EB000FFF726FF4A4A536C43F0010353648DF851
:100EC000085001A93046FFF793FE464B9E4216D9C3
:100ED000019B13F0400F03D0FEE7FFF7EBFDE3E7C4
:100EE00013F0800F05D023F0800301930025012625
:100EF00007E0049B013304930125002601E000254F
:100F00002E469DF80820019B43EA0263059A43EAB6
:100F10000243039A43EA0233049A43EA022343F466
:100F200000632F4A53642E4B1B6C13F0010FFAD051
:100F30000023012209210420FFF7E2FE06B34CF250
:100F400050330993099B5A1E0992002BFAD1019B39
:100F500043F0800301939DF8082043EA0263059A59
:100F600043EA0243039A43EA0233049A43EA022320
:100F700043F400631A4A5364002C2ED10AB070BDAA
:100F8000002DF9D04CF250330993099B5A1E099257
:100F9000002BFAD1049B5A1E04929DF80810019B65
:100FA00043EA0163059943EA0143039943EA0133A4
:100FB00043EA022343F40063094A5364DCE70A4826
:100FC00000EB8401CB788A78497810F82400FFF789
:100FD00097FE0134112CF2D9D0E70024FAE700BFC4
:100FE0000000054080778E06241D001A034B9842AE
:100FF00001D083207047A520704700BF00500C40EF
:10100000044B984202D040F2022070474FF4F17036
:10101000704700BF00500C40036823F47F4309026F
:1010200089B2194301600261704770B506460D46EA
:10103000FFF7E6FFFFF7FCFE02224FF0FF3300212F
:1010400000E02146AB420BD94C1C02FB04F3B0FB81
:10105000F3F39D42F6D2FF2CF3D902320021F1E7DF
:101060003046FFF7D9FF70BD10B50446FFF7BEFF4D
:10107000FFF7AAFE2046FFF7C3FFFFF7A5FE636850
:1010800023F004036360236823F0FF0343F00703A6
:10109000236002492046FFF7C8FF10BDA08601006B
:1010A000012909D1C0EBC0008200044B13441A6926
:1010B000137DDBB2042BFBD0704700BF0000001093
:1010C00070B50546064EC400221A93003344988832
:1010D000FFF77AFE641BA300F3586C229A6170BD7F
:1010E000000000102DE9F0410C460B4EC5002B1AF4
:1010F0004FEA830806EB08039888FFF799FEB0FBD8
:10110000F4F056F8083042081A6156F808301A69A7
:10111000801A5861BDE8F0810000001008B50B4A44
:101120000B4B9A6003F50C731B6903F47F63202B50
:1011300004D0FFF709FAFFF79DF908BD044AD2F879
:10114000883043F47003C2F88830F2E70000001AD8
:1011500000ED00E07047FFFF10B572B6194B1A4A58
:101160001A600433194A1A60002305E0184A4FF048
:10117000FF3142F823100133072BF7D962B6154B24
:1011800007E003F10C049A6859681868FEF7FEFF3F
:101190002346114A9342F4D306E01C46596854F89A
:1011A000080BFFF702F823460C4A9342F5D3FFF7EA
:1011B000B5FF00F0F3FCFFF7CDFF00F041FB30BFBF
:1011C000FDE700BF003105400010DF10FFF7DF0131
:1011D00080E200E01401001A5001001A7801001AA0
:1011E00070477047044B1860044A136843F00103CA
:1011F00013600120704700BF38000010001000E0AD
:1012000070B5044600EB400293001F4AD65875693A
:10121000EDB215F0010F09D020B91C4B1B680BB1C2
:1012200000209847032C13D0052C18D015F0200F60
:101230000DD0736813F0020F09D024B9144B1B684A
:101240000BB100209847032C10D0052C15D070BD91
:10125000104B1B68002BE7D000209847E4E70E4BAB
:101260001B68002BE2D000209847DFE70B4B1B6880
:10127000002BEAD000209847E7E7094B1B68002BBA
:10128000E5D000209847E2E76C1D001A50000010DE
:101290005C000010540000105800001060000010A6
:1012A0006400001000EB40008300034AD3585869E3
:1012B00000F02000704700BF6C1D001A00EB4000DA
:1012C0008300024AD3581960704700BF6C1D001A92
:1012D0002DE9F84380468946194C45002A189300A9
:1012E000E618E7583846FFF74BF949463846FFF706
:1012F00071F90723BB603B680123FB653079737983
:10130000B27942F018020F4903EB401341F8232051
:10131000F079337A727A42F0D00203EB401341F84D
:101320002320B8F1010F01D0BDE8F883064AD36C41
:1013300043F03003D3641A22C1F80823F4E700BF56
:101340006C1D001A006008400010084038B50446C3
:101350000D462046FFF7A6FF0028FAD02946204672
:10136000FFF7ACFF38BD38B505460C46217821B1F2
:101370002846FFF7EBFF0134F8E738BD08B5032036
:10138000FFF73EFF08BD08B50520FFF739FF08BD90
:10139000014BD3E9000170477000001018B1044BF5
:1013A00007221A607047024B00221A60704700BF84
:1013B00010E000E038B550EA01042AD010F1FF3205
:1013C00041F1FF33002B08BF322A27D2144BC3E967
:1013D0000001144B1B68A3FB004503FB01554FF4B0
:1013E0007A7200232046294600F056FA0138B0F1FF
:1013F000807F09D20C4B58600C4AE02182F8231000
:1014000000229A6007221A600120FFF7C7FF01201F
:1014100038BD0020FFF7C2FF0020F9E70020F7E702
:10142000400000108C00001010E000E000ED00E033
:1014300008B5074A13685168013341F10001136090
:101440005160044B1B6813B1034A1068984708BDEC
:1014500070000010780000106800001030B583B0F4
:1014600018B101283FD003B030BD214B00930025B7
:101470008DF804508DF805501E4C69462046FFF744
:101480006DF929462046FFF708FA1B4A69462046AF
:10149000FFF7CFF92A4601212046FFF7E9F92A464E
:1014A00001212046FFF7A4F92A4602212046FFF732
:1014B000DFF92A4602212046FFF79AF92A4603213E
:1014C0002046FFF7D5F92A4603212046FFF790F979
:1014D0002A4604212046FFF7CBF92A46042120465C
:1014E000FFF786F9BFE70348FFF758F9BBE700BFEE
:1014F000801A060000300E40400D030070B582B027
:1015000004460026ADF80660104D0122014628462B
:10151000FFF7AEF9324601212846FFF77AF900229B
:1015200021460A48FFF749F90128F8D1074D0DF186
:10153000060221462846FFF73CF9002221462846AC
:10154000FFF796F9BDF8060002B070BD00300E40FE
:1015500030B40B4D00EB80002C182856087094F91D
:101560000110117094F902201A7094F90320029B63
:101570001A7094F90420039B1A7030BC704700BFA6
:10158000B41D001A70B584B00C4600238DF80F30DE
:101590008DF80E308DF80D308DF80C308DF80B3045
:1015A0000DF10B03019303AB00930DF10D030DF14E
:1015B0000E020DF10F01FFF7CBFF052C00F2A58005
:1015C000DFE804F00981274563035148FFF760FC19
:1015D000012004B070BD9DF80F109DF80E309DF8ED
:1015E0000D2042F0D00203EB41134A4941F8232079
:1015F0009DF80C309DF90B20012000FA02F1444CBB
:1016000003F5006354F8232022EA010244F8232062
:10161000DFE79DF80F109DF80E309DF80D2042F089
:10162000C00203EB41133B4941F823209DF80C30E5
:101630009DF90B20012000FA02F1354C03F50063FF
:1016400054F8232022EA010244F82320C1E79DF840
:101650000F109DF80E309DF80D2042F0D80203EBDC
:1016600041132C4941F823209DF80C309DF90B20A3
:10167000012000FA02F1264C03F5006354F8232000
:1016800022EA010244F82320A3E79DF80F109DF8F9
:101690000E309DF80D2042F0C80203EB41131D49A6
:1016A00041F823209DF80C309DF90B20012000FA11
:1016B00002F1174C03F5006354F8232022EA0102DB
:1016C00044F8232085E79DF80F109DF80E309DF813
:1016D0000D2042F0D00203EB41130E4941F82320C4
:1016E0009DF80C409DF90B20012000FA02F1084BF7
:1016F00004F5006553F82560314343F82510D2B254
:1017000003EB44130021995463E7002061E700BF15
:1017100000400F400060084008B5044B1B681B6880
:10172000DB68034A1068984708BD00BF90000010AE
:101730007C00001008B5FFF7A1FB1A4B1868FFF7F3
:1017400051FD01200021FFF735FE05210020FFF7A4
:1017500019FF00212420FFF715FF00212520FFF7A6
:1017600011FF00212620FFF70DFF00212720FFF7A2
:1017700009FF01212820FFF705FF01212920FFF79C
:1017800001FF01212A20FFF7FDFE01212B20FFF799
:10179000F9FE01212C20FFF7F5FE01212D20FFF796
:1017A000F1FE08BD8C0000102DE9F8438046894603
:1017B000FFF7EEFD06460F46FFF7EAFD841B61EBDF
:1017C0000705064BD3E900234046494600F064F87C
:1017D0008D4208BF8442EFD3BDE8F883400000107B
:1017E000931E222B02D8F0B40E4605E000230B70A6
:1017F000084670471E46284690FBF2F502FB15048A
:10180000233433460D4F3C5D03F8014B002DF1D1DD
:10181000002804DB002203F801290A4609E02D22F2
:101820001A70B31CF6E71878147803F8014902F827
:10183000010B9342F7D80846F0BC70479C1E001A73
:1018400010B5FFF777FF4FF4E1310320FFF740FDBC
:101850000020FFF703FE4FF4FA700021FFF7A4FF0A
:101860000120FFF74BFE094C0A222146FFF7B8FF83
:1018700007490320FFF777FD21460320FFF773FD9B
:1018800004490320FFF76FFDEAE700BF8000001066
:10189000E41E001AF01E001A53B94AB9002908BF05
:1018A00000281CBF4FF0FF314FF0FF3000F074B93B
:1018B000ADF1080C6DE904CE00F006F8DDF804E0A7
:1018C000DDE9022304B070472DE9F047089E044685
:1018D0008846002B40F085808A42154648D9B2FAE6
:1018E00082F24AB1C2F1200701FA02F320FA07F7A7
:1018F000954047EA030894404FEA154E230CB8FB85
:10190000FEF71FFA85FC0EFB178843EA084307FB26
:101910000CF1994209D9EB1807F1FF3080F0E38010
:10192000994240F2E080023F2B445B1AA4B2B3FB21
:10193000FEF00EFB103344EA034400FB0CFCA4450C
:1019400009D92C1900F1FF3380F0CB80A44540F277
:10195000C88002382C4440EA0740A4EB0C0400275E
:101960001EB1D4400023C6E900433946BDE8F087E4
:10197000002A53D0B2FA82F2002A40F0B680491B06
:101980004FEA154E1FFA85F80127B1FBFEFC230C28
:101990000EFB1C1143EA014308FB0CF1994207D9E5
:1019A000EB180CF1FF3002D2994200F2EC80844631
:1019B000591AA3B2B1FBFEF00EFB101443EA044423
:1019C00008FB00F8A04507D92C1900F1FF3302D21B
:1019D000A04500F2DC801846A4EB080440EA0C4065
:1019E000BEE78B4208D9002E78D00027C6E9000157
:1019F00038463946BDE8F087B3FA83F77FB98B42A2
:101A000002D3824200F2BD80841A61EB03030120FD
:101A10009846002EA9D0C6E90048A6E7FFDEC7F128
:101A20002005BB4022FA05FC4CEA030C01FA07F43E
:101A300020FA05F821FA05F34FEA1C4E48EA04049F
:101A4000B3FBFEF9210C0EFB19331FFA8CF841EAA7
:101A5000034309FB08FA9A4502FA07F200FA07F174
:101A60000BD91CEB030309F1FF3080F088809A4505
:101A700040F28580A9F102096344A3EB0A03A4B2F2
:101A8000B3FBFEF00EFB103344EA034400FB08F8FE
:101A9000A04508D91CEB040400F1FF336BD2A0452C
:101AA00069D90238644440EA0940A4EB0804A0FB69
:101AB00002894C45C6464B4654D351D0002E69D0BE
:101AC000B1EB0E0264EB030404FA05F522FA07F306
:101AD000FC401D43C6E90054002746E73746304620
:101AE00043E7184637E707461FE7C2F1200320FA0D
:101AF00003F7954001FA02F021FA03F34FEA154E7D
:101B00003843010CB3FBFEF71FFA85F80EFB1733C1
:101B100041EA034107FB08F38B4204FA02F407D9B8
:101B2000691807F1FF3C28D28B4226D9023F29448D
:101B3000CB1A81B2B3FBFEF00EFB103341EA034136
:101B400000FB08F38B4207D9691800F1FF3C10D263
:101B50008B420ED902382944C91A40EA074714E7D4
:101B60004145ABD2B8EB020E69EB0C0201381346CB
:101B7000A4E76046F0E7184695E76746D8E7814650
:101B80007BE7384645E7ACF1020C2B4410E70238FE
:101B90002C4421E73746E8E6704700BF70B50D4D8D
:101BA0000D4C641BA4100026A64209D10B4D0C4C11
:101BB000FFF717FB641BA4100026A64205D170BDD9
:101BC00055F8043B98470136EEE755F8043B984733
:101BD0000136F2E7F41E001AF41E001AF41E001A71
:101BE000F41E001A02440346934200D1704703F8E2
:101BF000011BF9E7000000000004000800090109CA
:101C0000050005010502000E010B010C0300030392
:101C10000304050F05100305030603070208FFFF71
:101C2000001BB700010F0101020044000201440043
:101C300002024400020A4000020B4000020C400075
:101C40000100500001015000010250000106500047
:101C50000601500006045000060550000607540017
:101C60000608540006095000060A5000060B5000F2
:101C7000060C50000F04F0000103D5000104D5004C
:101C80000701160007025600020352000204520028
:101C9000090552000906570006025700C201A201B9
:101CA0008201620181008200A100A20001020408F9
:101CB000030F0F0FFF00FFFF000005000A002000C8
:101CC000240009004000400005006000A600040058
:101CD000C000C3000200E000E000010000010001BC
:101CE0000300200120010600400140010C004201D8
:101CF0004201190062016201130082018201120097
:101D0000A201A2011100C201C2011000E201E20120
:101D10000F00020202020E00220222020D00230224
:101D200023021C0000010100090901000A09010049
:101D30000107010102090100060901000C09010166
:101D40000D0901000E0901000F0901001009010031
:101D50001109010012090100130901001411010009
:101D6000191101001A1101001B1101000010084097
:101D700006040206050218000010084009050709BC
:101D800006071800002008400000000000001900AD
:101D900000100C400701060702061A0000100C4054
:101DA000010F010110011A0000200C400203020281
:101DB00004021B000401000201070500030D0105D8
:101DC00000010804020002020403000203040000F0
:101DD0000200070400030C030204050903010405C3
:101DE0000802030405030204040504060C000208AB
:101DF000060B0003070609000305060704050F0686
:101E000004000303040400020404050002050406A0
:101E1000000206040804050C040A04050E01030070
:101E2000000A011400000F011200000D0111000052
:101E30000C0110000003070700030F000100000160
:101E40000000000000060A0003060608040510064C
:101E5000050003040601000300040904050D010444
:101E600000000B010F00000201000000040101004E
:101E70000008010200000901060001090200040532
:101E80000002010405010202040502020A00000E1C
:101E9000020B00010B020C00010CFFFF7A7978772E
:101EA000767574737271706F6E6D6C6B6A6968674A
:101EB00066656463626139383736353433323130C0
:101EC0003132333435363738396162636465666779
:101ED00068696A6B6C6D6E6F70717273747576770A
:101EE00078797A00414443204348313A2000000089
:041EF0000D0A0000D7
:081EF400D4F9FF7F010000009A
:101EFC0000100A4022000000A110001A000000008F
:101F0C0000000000000000000000000000000E4077
:101F1C0001000000A110001A0000000000000000E9
:101F2C00000000000000000000CB280CFFFFFFFFAA
:081F3C0001000000000000009C
:040000051A00115973
:00000001FF
